:100000000C942A000C9447000C9447000C94470071
:100010000C9447000C9447000C9447000C94470044
:100020000C9447000C9447000C9447000C94470034
:100030000C9447000C9447000C9447000C94470024
:100040000C9447000C9447000C9447000C94470014
:100050000C94470011241FBECFE5D4E0DEBFCDBF16
:1000600013E0A0E6B0E0E2E1FEE102C005900D92EF
:10007000AE3EB107D9F724E0AEEEB3E001C01D9269
:10008000A730B207E1F70E94120A0C94070F0C94F4
:100090000000FC01A62FB72FCC96208131814D9115
:1000A0005C911197419351932D933D93E817F90774
:1000B000A1F7089585BBDA9ADB98969A8DE08A9528
:1000C000F1F7000096988DE08A95F1F70000089509
:1000D00085BBDA98DB98969A8DE08A95F1F7000057
:1000E00096988DE08A95F1F7000008958AB38C60A8
:1000F0008ABB81B3806C81BB87B3836087BB8FEF82
:1001000084BB8FE39CE90197F1F700C000001BBAA4
:1001100012BA18BA8FE39CE90197F1F700C000000A
:100120008CE30E9468008CE00E94680081E00E94DD
:1001300068008FE99FE00197F1F700C0000086E0BA
:100140000E9468008FE00E94680008959CE09BBBBD
:1001500090E892BB882319F081E088BB02C082E05E
:1001600088BB979A8EE30E94680082E40E94680030
:1001700088EB0E94680080EC0E9468008FE30E9478
:10018000680008952F923F924F925F926F927F92F4
:100190008F929F92AF92BF92CF92DF92EF92FF9297
:1001A0000F931F93CF93DF9300D000D000D0CDB733
:1001B000DEB78B01E82EF12CC70188549F4F9A833C
:1001C00089834130510519F4C09AC19802C0C19A7F
:1001D000C0980E946800F8019081992309F459C1E0
:1001E000222433242E183F083694322C22243794AC
:1001F0002794F5E02F1AFCEF3F0A612C512C412C7B
:100200000F2EFFE37F2EF02DE12CF12C49815A8136
:100210009A0140E050E029833A834B835C8304C019
:100220002E143F0408F435C1903209F44FC081E028
:1002300090E09E838D83CD80DE80CE0CDF1C20E09D
:1002400030E040E05FE3662D752D842D972D0E94F0
:10025000C00AA62EB72E982E892E0E942C0B7695BA
:10026000762F662777956795C616D70629F5ED810F
:10027000FE81359759F180E40E94680088B3F1E06F
:100280008F2788BB88B322E0822788BB69817A8167
:100290008B819C810E94620B262D352D442D572D7C
:1002A0000E94C00A0E94330B862F0E9468006A2CAD
:1002B0005B2C492C782C76014D815E814F5F5F4F1E
:1002C0005E834D834630510509F0B5CF2E143F04AF
:1002D00008F4DFC0F8018081803209F053C0670163
:1002E0001E821D82F801808190E080979C01220F80
:1002F000331F220F331FF901E80FF91FEA5BFE4F8E
:100300002D813E81E20FF31F80810E945A003FEF52
:10031000C31AD30AC6018F739927892B39F588B37D
:1003200041E0842788BB88B352E0852788BB698178
:100330007A818B819C810E94620B262D352D442D64
:10034000572D0E94C00A0E94330B862F0E9468001E
:1003500020E030E040E05FE3662D752D842D972D81
:100360000E94C00A662E572E482E792E8D819E81BE
:1003700001969E838D83059709F0B4CF95E0E90E31
:10038000F11C81C067011E821D82F801808190E00E
:1003900080979C01220F331F220F331FF901E80FB2
:1003A000F91FEA5BFE4F2D813E81E20FF31F808132
:1003B0000E945A003FEFC31AD30AC6018F739927D0
:1003C000892B39F588B341E0842788BB88B352E094
:1003D000852788BB69817A818B819C810E94620B11
:1003E000262D352D442D572D0E94C00A0E94330B17
:1003F000862F0E94680020E030E040E05FE3662D39
:10040000752D842D972D0E94C00A662E572E482EDA
:10041000792E8D819E8101969E838D83059709F0AB
:10042000B4CF80E00E945A0096E0E90EF11CC701AB
:100430008F739927892B39F588B3E1E08E2788BB24
:1004400088B3F2E08F2788BB69817A818B819C8198
:100450000E94620B262D352D442D572D0E94C00A77
:100460000E94330B862F0E94680020E030E040E0BD
:100470005FE3662D752D842D972D0E94C00A662E90
:10048000572E482E792E0F5F1F4FF8019081911142
:10049000C7CE80E40E94680026960FB6F894DEBFAF
:1004A0000FBECDBFDF91CF911F910F91FF90EF90C5
:1004B000DF90CF90BF90AF909F908F907F906F9084
:1004C0005F904F903F902F9008951F93CF93DF93AD
:1004D00080E00E94A60018EB812F0E946800C0E413
:1004E000D0E080E00E945A002197D9F71F5F103CAE
:1004F00099F780E40E94680088EB0E94680081E020
:100500000E94A60018EB812F0E946800C0E4D0E092
:1005100080E00E945A002197D9F71F5F103C99F79D
:1005200080E40E94680088EB0E946800DF91CF9110
:100530001F9108951F93CF93DF93D82FC62F142FA9
:10054000862F86958695869588540E9468008D2F03
:100550008F73805C0E946800C770812F01C0880F74
:10056000CA95EAF70E945A00DF91CF911F91089532
:100570000F931F93CF93DF93C0E00CE910E08091BD
:10058000EE039091EF03019741F448E050E0F80149
:1005900062818C2F0E949A0207C040E050E0F8016F
:1005A00062818C2F0E949A02CF5FC13441F7809103
:1005B000A0009091A100992304F100E010E0CCE9A3
:1005C000D0E08091EE039091EF03019741F4888190
:1005D00049E050E06A81800F0E949A0207C088813A
:1005E00041E050E06A81800F0E949A020F5F1F4F26
:1005F0008C819D818017910724F7DF91CF911F9106
:100600000F910895EF92FF920F931F93CF93DF9373
:100610000CE111E0C0E6D0E00F2EFCE9EF2EF0E097
:10062000FF2EF02DF801819191918F010197E1F456
:10063000888141E050E06A8181500E949A0288815D
:1006400041E050E06A818F5F0E949A026A816150A6
:1006500041E050E088810E949A026A816F5F41E028
:1006600050E088810E949A022696CE15DF05D1F6C9
:10067000DF91CF911F910F91FF90EF900895ECE9DA
:10068000F0E020813181448155818EE390E0841B2C
:10069000950B8217930734F086819781280F391FB5
:1006A000318320830E94B8020895ECE9F0E0808154
:1006B0009181268137818217930734F0821B930B37
:1006C00090939D0080939C000E94B80208958091B1
:1006D000F0039091F1038230910519F40E94B80261
:1006E0000895009719F40E943F030895019711F4AB
:1006F0000E94550308950F931F93CF93DF93082F04
:10070000192FC3E0D4E040E050E06A8188810E9464
:100710009A026A817B81615071097B836A8341E01F
:1007200050E088810E949A028A819B8102971CF086
:10073000802F912F02C083E090E0DF91CF911F9135
:100740000F9108950F931F93CF93DF938C01C3E014
:10075000D4E040E050E06A8188810E949A026A8178
:100760007B816F5F7F4F7B836A8341E050E08881AC
:100770000E949A02C801DF91CF911F910F910895B5
:100780000F931F93CF93DF93082F192FC3E0D4E06B
:1007900040E050E06A8188810E949A0288819981B4
:1007A0000196998388836A817B81615071097B837B
:1007B0006A8341E050E00E949A02888199818034E6
:1007C000910519F0802F912F02C082E090E0DF9117
:1007D000CF911F910F9108950F931F93CF93DF93A4
:1007E000082F192FC3E0D4E040E050E06A818881EF
:1007F0000E949A02888199810197998388836A81EE
:100800007B81615071097B836A8341E050E00E94E3
:100810009A0288819981892B19F0802F912F02C02B
:1008200081E090E0DF91CF911F910F9108950F9398
:100830001F93CF93DF93082F192FC3E0D4E040E03C
:1008400050E06A8188810E949A028881998101968C
:10085000998388836A817B816F5F7F4F7B836A8303
:1008600041E050E00E949A0288819981CC97E4F49B
:100870008091050490910604CF97C9F48091EE030E
:100880009091EF03019749F08EEF9FEF9093F30360
:100890008093F203802F912F0CC01092EF031092DF
:1008A000EE03802F912F05C084E090E002C0802FDE
:1008B000912FDF91CF911F910F9108950F931F9367
:1008C000CF93DF93082F192FC3E0D4E040E050E02E
:1008D0006A8188810E949A0288819981019799830F
:1008E00088836A817B816F5F7F4F7B836A8341E06E
:1008F00050E00E949A0288819981892BE1F08091D1
:10090000050490910604CF97C9F48091EE0390916D
:10091000EF03019749F08EEF9FEF9093F3038093DD
:10092000F203802F912F0CC01092EF031092EE0370
:10093000802F912F05C083E090E002C0802F912F7F
:10094000DF91CF911F910F91089580914401909173
:1009500045018330910501F134F48130910551F066
:10096000029789F03CC08530910541F1F4F006977B
:1009700071F135C081E090E00E94C0039093450181
:10098000809344012CC082E090E00E94EC0390939D
:1009900045018093440123C083E090E00E94170446
:1009A00090934501809344011AC084E090E00E9436
:1009B0005E04909345018093440111C085E090E06E
:1009C0000E947B03909345018093440108C086E018
:1009D00090E00E94A203909345018093440180918E
:1009E0000504909106048F339105E4F020914401B1
:1009F000309145012430310549F422E030E0309354
:100A0000450120934401029744F514C02330310579
:100A100049F421E030E030934501209344010297EE
:100A2000E4F415C00297CCF4809144019091450103
:100A3000029739F484E090E090934501809344015B
:100A40000CC08091440190914501019731F483E0FD
:100A500090E09093450180934401809144019091EE
:100A6000450108958091440190914501833091059D
:100A7000D9F034F48130910549F0029771F008956E
:100A800084309105C1F00597E9F0089583E090E086
:100A90009093450180934401089584E090E0909301
:100AA000450180934401089581E090E090934501D1
:100AB00080934401089582E090E0909345018093F3
:100AC0004401089583E090E09093450180934401B0
:100AD0000895809144019091450183309105E1F0A2
:100AE00034F48130910551F0029779F00895853002
:100AF000910501F1C4F0069721F1089583E090E09B
:100B00009093450180934401089584E090E0909390
:100B1000450180934401089581E090E09093450160
:100B200080934401089582E090E090934501809382
:100B30004401089586E090E090934501809344013C
:100B4000089585E090E090934501809344010895D5
:100B50006F927F928F929F92AF92BF92CF92DF92CD
:100B6000EF92FF920F931F93CF93DF93E3E0F4E0B4
:100B7000A080B180628073800F2EF0E3EF2EF1E051
:100B8000FF2EF02D04EA10E00F2EF0EECF2EF0E055
:100B9000DF2EF02DF70180819181019749F0480106
:100BA000D80114968D919C9115979923ACF546C068
:100BB0004801D8012D913C91119714968D919C91EB
:100BC0001597820F931F8A159B0574F0A216B30622
:100BD0005CF012968D919C9113976816790621F41A
:100BE000118210820E943205F4018481958199233B
:100BF0002CF1C0E0D0E0D4018C9141E050E012969D
:100C00006C918C0F0E949A022196F4018481958147
:100C10008C179D0784F712C0C0E0D0E0D4018C91FE
:100C200040E050E012966C918C0F0E949A0221963F
:100C3000F401848195818C179D0784F7F2E0EF0E13
:100C4000F11C0A5F1F4FC016D10609F0A3CFDF9138
:100C5000CF911F910F91FF90EF90DF90CF90BF90B9
:100C6000AF909F908F907F906F900895E3E0F4E0B5
:100C700040815181A281B381ECE9F0E06081718112
:100C800024813581C90133230CF40196959587950C
:100C9000860F971FFC013196E417F50794F0019732
:100CA0004817590774F080919E0090919F00A817F3
:100CB000B90739F485E090E09093450180934401B1
:100CC0000895260F371F241735076CF0461757076E
:100CD00054F080919E0090919F000297A817B90749
:100CE00011F40E9469050895ECE9F0E08481958192
:100CF0000296958384830895ECE9F0E084819581E0
:100D000002979583848308958091300190913101F9
:100D1000019751F0E2E3F1E081E090E0219131911F
:100D20002130310559F402C080E090E0880F991F0E
:100D3000FC01E05DFE4F11821082089501968A3019
:100D4000910561F708952F923F924F925F926F92B3
:100D50007F928F929F92AF92BF92CF92DF92EF924B
:100D6000FF920F931F93CF93DF93E3E0F4E0A08013
:100D7000B18082809380CCE1D1E000E610E00F2EBC
:100D8000FCE9CF2EF0E0DF2EF02D44244394512CCB
:100D90000F2EFCE92F2EF0E03F2EF02D3E01888132
:100DA0009981019709F079C07801F80180819181DA
:100DB000A816B90609F479C09C0121503109A21680
:100DC000B30609F47AC00196A816B90609F065C001
:100DD000828193818816990609F05FC00EC0F701E1
:100DE000828193819C012F5F3F4F8216930629F0E9
:100DF00001978816990609F050C0F7018481958102
:100E00008130910531F483E090E0F101978386838E
:100E10000BC08230910521F4F101578246820BC04C
:100E2000039711F40E947406F70184819581049759
:100E300011F40E947C06F70184819581853091052B
:100E400029F45092EF034092EE0304C0069711F488
:100E50000E948406F701808140E050E06281815069
:100E60000E949A02F701808140E050E062818F5F2A
:100E70000E949A02F7016281615040E050E0808157
:100E80000E949A02F70162816F5F40E050E080812A
:100E90000E949A02F3011182108222960A5F1F4F6C
:100EA0000C151D0509F07ACF0FC0F80182819381DE
:100EB0008815990509F093CFA0CFF801828193811D
:100EC0008816990651F799CFDF91CF911F910F9115
:100ED000FF90EF90DF90CF90BF90AF909F908F905A
:100EE0007F906F905F904F903F902F900895EF927A
:100EF000FF920F931F93CF93DF93CAE0D0E00EEFE2
:100F00001FEFEE24E394F12C8FE39FE10197F1F7BB
:100F100000C00000B29B13C08091F2039091F303D4
:100F2000029621F01093F3030093F2038FEF91EEFA
:100F300024E0815090402040E1F700C00000B79BC2
:100F400006C0F092F103E092F0030E946703B69BA3
:100F500006C01092F1031092F0030E9467032197DC
:100F600099F6DF91CF911F910F91FF90EF90089527
:100F7000EF92FF920F931F93CF93DF9381E00E9434
:100F8000A600D0E00F2EFBEFEF2EFF24FA94F02DF9
:100F90002AC00115110539F44FE050E060E08D2FB3
:100FA0000E949A0209C00730110531F440EF50E069
:100FB00068E38D2F0E949A0286E3E816F10430F070
:100FC0004FEF50E06C2F8D2F0E949A020F5F1F4F42
:100FD000C85FC034F1F68FEFE81AF80ADF5F8AE3E2
:100FE000E816F10421F0C0E000E010E0D2CF80E08C
:100FF0000E94A600DF91CF911F910F91FF90EF907B
:101000000895CF93DF93D0E012C04AEA50E06C2FEE
:101010008D2F0E949A024AEA50E06C2F8D2F0E9479
:101020009A02C85FC03489F7DF5FDF3311F0C0E098
:10103000ECCFDF91CF910895DC01CB01880F991F90
:10104000AA1FBB1F880F991FAA1FBB1F9C01AD01C0
:10105000220F331F441F551F220F331F441F551FDC
:1010600060E072E18AE790E00E94F00B21503109C4
:1010700030BD29B988E18AB986E880BD08955D9BB5
:10108000FECF8CB908955F9BFECF8CB10895CF93AE
:10109000DF93EC018881882331F021960E943F087C
:1010A00089918111FBCFDF91CF9108950F931F9309
:1010B000CF93DF938C01CEE1D0E00230110531F403
:1010C00060EE70E084EA90E00E9449002197A9F761
:1010D000DF91CF911F910F9108959F938F938EE28F
:1010E00093E09F938F9389EF93E09F938F930E9458
:1010F0001D0C41E050E069EF73E081E00E94C20006
:1011000080E00E94A6000F900F900F900F900F901C
:101110000F900895E0E3F1E0ACE1B1E044E451E088
:1011200080E090E021913191232B09F402962D91DA
:101130003D91232B09F40196E417F50799F70895DB
:10114000CF93DF93CDB7DEB728970FB6F894DEBF05
:101150000FBECDBF87E0E6E2F3E0DE01119601901D
:101160000D928A95E1F7188664EF73E0CE0101963F
:101170000E94120C41E050E0BC0185E00E94C200D8
:1011800080E00E94A60028960FB6F894DEBF0FBE3E
:10119000CDBFDF91CF9108958091300190913101C1
:1011A000009771F4E2E3F1E044E451E021913191E0
:1011B000232B41F4E417F507C9F781E090E0089587
:1011C00080E090E00895CF93DF93C0E0D0E0AE01DF
:1011D00068E373E081E00E94C200AE0163E473E063
:1011E00082E00E94C200AE016FE473E083E00E94DF
:1011F000C200AE0168E373E084E00E94C200219661
:10120000C230D10521F7DF91CF910895CF93DF93BD
:10121000C82FD92F41E050E06BE573E081E00E94D8
:10122000C20041E050E068E673E082E00E94C20044
:1012300041E050E065E773E083E00E94C200DF9385
:10124000CF9381E893E09F938F9389EF93E09F93EF
:101250008F930E941D0C41E050E06EE873E084E043
:101260000E94C20041E050E06EE873E086E00E9418
:10127000C20041E050E069EF73E085E00E94C200E7
:101280000F900F900F900F900F900F90DF91CF91D4
:101290000895CF92DF92EF92FF920F931F93CF9317
:1012A000DF937C011092F3031092F2030E94560820
:1012B0000E9476000E9465028FE39CE90197F1F796
:1012C00000C00000929AE3E0F4E08EE190E09183A8
:1012D0008083938382830E94E3089FEF23ED80E362
:1012E000915020408040E1F700C000000E9465025C
:1012F00080E00E94A6001092EF031092EE03C0E07F
:10130000D0E000E010E00E9477078091F203909116
:10131000F30302960297E0F00E9477070E94A5046B
:1013200090934501809344010E9436060E94A306D3
:101330000E94B8020E9402030E94A8050E948A0827
:101340008C010E946D080E94A0080E94CC08EC014C
:101350008091F2039091F303019649F40E94650293
:1013600041E050E06CE973E088E00E94C200C09068
:10137000F203D090F3038EEFC8168FEFD806D9F49E
:101380000E94650280E00E94A6000E94010881E0A0
:101390000E94A6000E940108C8010E9406090E943E
:1013A000B8079FEF21EE84E0915020408040E1F7A4
:1013B00000C000002DC0C130D10509F0A4CF0E94AB
:1013C000650280E00E94A60081E00E94A6000E94C3
:1013D000010880E00E94A6000E940108C8010E9446
:1013E00006090E94B8079FEF21E18AE7915020404B
:1013F0008040E1F700C0000092E0E916F10429F016
:101400006894CC24C1F8D12C03C0CC24C394D12C33
:10141000C601DF91CF911F910F91FF90EF90DF9068
:10142000CF900895EF92FF920F931F93CF93DF9386
:101430000E9476000E94650240E050E068E373E09D
:1014400081E00E94C20040E050E066EA73E082E082
:101450000E94C20040E050E061EB73E083E00E9434
:10146000C20040E050E06CEB73E084E00E94C200F8
:1014700040E050E068E373E085E00E94C20080E055
:1014800090E00E9406091092F3031092F2038FEF8E
:1014900084BB87B387BB60E875E280E090E00E9480
:1014A0001C0888EC93E00E9447085F9B1AC080915B
:1014B000F2039091F303029609F455C00E94430889
:1014C000823331F460EE70E084EA90E00E944900DB
:1014D0000E9477078091F2039091F303029651F4F2
:1014E0001FC00E9477078091F2039091F303029648
:1014F000E1F616C081EE93E00E944708C0E05F9BD2
:101500000BC0C33048F40E944308D82FEC2FF0E002
:10151000EC50FC4F8083CF5FC33011F0D03279F7AD
:10152000EE24E394F12C04E411E0C1E0D0E0C70123
:101530000E9449097C0160EE70E084EA90E00E941C
:101540004900E0E3F1E0ACE1B1E0C193D193CD9388
:10155000DD930E171F07C9F78091F2039091F303F3
:10156000029629F703C00E947707BDCF80E090E084
:10157000DF91CF911F910F91FF90EF9008955058F8
:10158000BB27AA270E94D70A0C94B60B0E94A80B6F
:1015900038F00E94AF0B20F039F49F3F19F426F485
:1015A0000C94A50B0EF4E095E7FB0C949F0BE92F30
:1015B0000E94C70B58F3BA17620773078407950791
:1015C00020F079F4A6F50C94E90B0EF4E0950B2EBF
:1015D000BA2FA02D0B01B90190010C01CA01A00185
:1015E0001124FF27591B99F0593F50F4503E68F1E0
:1015F0001A16F040A22F232F342F4427585FF3CF21
:10160000469537952795A795F0405395C9F77EF4F1
:101610001F16BA0B620B730B840BBAF09150A1F03A
:10162000FF0FBB1F661F771F881FC2F70EC0BA0FC0
:10163000621F731F841F48F4879577956795B79548
:10164000F7959E3F08F0B0CF9395880F08F0992743
:10165000EE0F9795879508950E94330B6894B1110A
:101660000C94EA0B08950E94CF0B88F09F5798F0D6
:10167000B92F9927B751B0F0E1F0660F771F881F97
:10168000991F1AF0BA95C9F714C0B13091F00E94B1
:10169000E90BB1E008950C94E90B672F782F8827A8
:1016A000B85F39F0B93FCCF3869577956795B395D8
:1016B000D9F73EF490958095709561957F4F8F4F47
:1016C0009F4F0895E89409C097FB3EF4909580954C
:1016D000709561957F4F8F4F9F4F9923A9F0F92FF8
:1016E00096E9BB279395F695879577956795B79576
:1016F000F111F8CFFAF4BB0F11F460FF1BC06F5F5C
:101700007F4F8F4F9F4F16C0882311F096E911C06D
:10171000772321F09EE8872F762F05C0662371F08E
:1017200096E8862F70E060E02AF09A95660F771FA2
:10173000881FDAF7880F9695879597F9089597F996
:101740009F6780E870E060E008959FEF80EC089567
:1017500000240A9416161706180609060895002490
:101760000A9412161306140605060895092E03940A
:10177000000C11F4882352F0BB0F40F4BF2B11F47E
:1017800060FF04C06F5F7F4F8F4F9F4F089557FDDD
:101790009058440F551F59F05F3F71F04795880FDF
:1017A00097FB991F61F09F3F79F087950895121676
:1017B00013061406551FF2CF4695F1DF08C0161622
:1017C00017061806991FF1CF8695710561050894D3
:1017D0000895E894BB2766277727CB0197F90895EA
:1017E000A1E21A2EAA1BBB1BFD010DC0AA1FBB1F25
:1017F000EE1FFF1FA217B307E407F50720F0A21B97
:10180000B30BE40BF50B661F771F881F991F1A9403
:1018100069F760957095809590959B01AC01BD012D
:10182000CF010895FB01DC010D900020E9F711972D
:1018300001900D920020E1F70895AEE0B0E0E3E200
:10184000FCE00C94DE0E0D891E8986E08C831A83E1
:1018500009838FEF9FE79E838D83AE01475E5F4FC5
:101860006F89788DCE0101960E943F0CEF81F8853B
:10187000E00FF11F10822E96E4E00C94FA0EABE01C
:10188000B0E0E5E4FCE00C94D00E6C017B018A0131
:10189000FC0117821682838181FFCCC1CE010196A3
:1018A0003C01F6019381F70193FD859193FF8191AE
:1018B0007F01882309F4BAC1853239F493FD8591FB
:1018C00093FF81917F01853229F4B60190E00E9457
:1018D000360EE7CF912C212C312CFFE1F315D8F0F7
:1018E0008B3279F038F4803279F08332A1F4232DF1
:1018F00020611DC08D3261F0803369F4232D216099
:1019000016C0832D8260382EE32DE4603E2E2AC05F
:10191000F32DF8601DC037FC2DC020ED280F2A30B4
:1019200040F08E32B9F436FC81C1232D2064322E72
:1019300019C036FE06C08AE0989E200D1124922E12
:1019400011C0EAE02E9E200D1124222EF32DF0620C
:101950003F2E08C08C3621F4832D8068382E02C0BB
:10196000883641F4F70193FD859193FF81917F01C2
:101970008111B3CF982F9F7D9554933028F40C5F3D
:101980001F4F9FE399830DC0833631F0833771F089
:10199000833509F059C021C0F801808189830E5F29
:1019A0001F4F88248394912C530113C02801F2E027
:1019B0004F0E511CF801A080B18036FE03C0692D86
:1019C00070E002C06FEF7FEFC5010E942B0E4C014B
:1019D0008201F32DFF773F2E16C0280122E0420E30
:1019E000511CF801A080B18036FE03C0692D70E063
:1019F00002C06FEF7FEFC5010E94200E4C01F32D56
:101A0000F0683F2E820133FC1BC0822D90E08816C7
:101A10009906B0F4B60180E290E00E94360E2A9456
:101A2000F4CFF50137FC859137FE81915F01B60156
:101A300090E00E94360E21102A9421E0821A91082B
:101A40008114910471F7E8C0843611F0893641F5AC
:101A5000F80137FE07C060817181828193810C5F3C
:101A60001F4F08C060817181072E000C880B990BF5
:101A70000E5F1F4FF32DFF763F2E97FF09C0909505
:101A80008095709561957F4F8F4F9F4FF0683F2EE7
:101A90002AE030E0A3010E94720E882E861845C00D
:101AA000853731F4232D2F7EB22E2AE030E025C079
:101AB000932D997FB92E8F36C1F018F4883579F0BF
:101AC000B5C0803719F0883721F0B0C0E92FE06148
:101AD000BE2EB4FE0DC0FB2DF460BF2E09C034FE37
:101AE0000AC0292F2660B22E06C028E030E005C0CB
:101AF00020E130E002C020E132E0F801B7FE07C08B
:101B000060817181828193810C5F1F4F06C060816B
:101B1000718180E090E00E5F1F4FA3010E94720E62
:101B2000882E8618FB2DFF773F2E36FE0DC0232D05
:101B30002E7FA22E891458F434FE0BC032FC09C04B
:101B4000832D8E7EA82E05C0B82CA32C03C0B82CE4
:101B500001C0B92CA4FE0FC0FE01E80DF11D80816B
:101B6000803321F49A2D997EA92E09C0A2FE06C0C9
:101B7000B394B39404C08A2D867809F0B394A3FC7F
:101B800011C0A0FE06C0B21488F4280C922C9B1839
:101B90000EC0B21460F4B60180E290E00E94360EEE
:101BA000B394F7CFB21418F42B1802C0982C212C40
:101BB000A4FE10C0B60180E390E00E94360EA2FEA3
:101BC00017C0A1FC03C088E790E002C088E590E060
:101BD000B6010CC08A2D867859F0A1FE02C08BE2B6
:101BE00001C080E2A7FC8DE2B60190E00E94360EB3
:101BF000891438F4B60180E390E00E94360E9A947E
:101C0000F7CF8A94F301E80DF11D8081B60190E0D1
:101C10000E94360E8110F5CF222009F442CEB60183
:101C200080E290E00E94360E2A94F6CFF60186817B
:101C3000978102C08FEF9FEF2B96E2E10C94EC0EA0
:101C4000FC010590615070400110D8F78095909587
:101C50008E0F9F1F0895FC0161507040019001108C
:101C6000D8F7809590958E0F9F1F08950F931F931F
:101C7000CF93DF93FB01238121FD03C08FEF9FEF03
:101C80002CC022FF16C0468157812481358142171E
:101C9000530744F4A081B1819D012F5F3F4F3183F1
:101CA00020838C93268137812F5F3F4F3783268394
:101CB00014C08B01EC01FB010084F185E02D099536
:101CC000892BE1F6D80116968D919C911797019674
:101CD00017969C938E931697CE01DF91CF911F910B
:101CE0000F910895FA01AA27283051F1203181F18E
:101CF000E8946F936E7F6E5F7F4F8F4F9F4FAF4F14
:101D0000B1E03ED0B4E03CD0670F781F891F9A1F26
:101D1000A11D680F791F8A1F911DA11D6A0F711DDA
:101D2000811D911DA11D20D009F468943F912AE0E6
:101D3000269F11243019305D3193DEF6CF010895CE
:101D4000462F4770405D4193B3E00FD0C9F7F6CFFF
:101D5000462F4F70405D4A3318F0495D31FD4052C7
:101D6000419302D0A9F7EACFB4E0A695979587955D
:101D700077956795BA95C9F700976105710508953C
:101D80009B01AC010A2E06945795479537952795E8
:101D9000BA95C9F7620F731F841F951FA01D089580
:101DA0002F923F924F925F926F927F928F929F926B
:101DB000AF92BF92CF92DF92EF92FF920F931F9359
:101DC000CF93DF93CDB7DEB7CA1BDB0B0FB6F8940A
:101DD000DEBF0FBECDBF09942A88398848885F844A
:101DE0006E847D848C849B84AA84B984C884DF80BB
:101DF000EE80FD800C811B81AA81B981CE0FD11D9F
:101E00000FB6F894DEBF0FBECDBFED010895F89474
:021E1000FFCF02
:101E12000100090005001900040002000C001E0068
:101E220003003D00140004000F002B0005002A00EF
:101E3200190006000A0032000200370029000100E2
:101E420024003300030028002300020014003C0099
:101E52000C0001000A001E00060012001E0006000F
:101E62001A001E00060022001E0006002A000A00B8
:101E7200060032000A0006000A000A0006001200EC
:101E82000A0006001A000A00060022000A000600E4
:101E92003200050006002A000500060022000500A7
:101EA20006001A000F00060012000F0006000A00CA
:101EB2000F0006002800140006002000140006008F
:101EC20030001400060004001400060001000100A6
:101ED20001000100010001000100010001000100F8
:101EE20001000100010001000100010001000100E8
:101EF200010001000500000000000000005F00007A
:101F02000007000700147F147F14242A7F2A12235B
:101F12001308646236495522500005030000001C74
:101F22002241000041221C0014083E081408083E09
:101F32000808005030000008080808080060600027
:101F42000020100804023E5149453E00427F4000F5
:101F520042615149462141454B311814127F1027E5
:101F6200454545393C4A494930017109050336491D
:101F7200494936064949291E0036360000005636C0
:101F820000000814224100141414141400412214F5
:101F9200080201510906324979413E7E1111117E32
:101FA2007F494949363E414141227F4141221C7FBE
:101FB200494949417F090909013E4149497A7F0856
:101FC20008087F00417F41002040413F017F081403
:101FD20022417F404040407F020C027F7F04081074
:101FE2007F3E4141413E7F090909063E4151215E42
:101FF2007F09192946464949493101017F01013FBB
:102002004040403F1F2040201F3F4038403F631464
:1020120008146307087008076151494543007F416E
:10202200410002040810200041417F000402010225
:1020320004404040404000010204002054545478BF
:102042007F484444383844444420384444487F3824
:1020520054545418087E0901020C5252523E7F0811
:1020620004047800447D40002040443D007F102855
:10207200440000417F40007C041804787C0804047A
:102082007838444444387C14141408081414187C16
:102092007C080404084854545420043F4440203C23
:1020A2004040207C1C2040201C3C4030403C4428C6
:1020B2001028440C5050503C4464544C44000836A0
:1020C200410000007F00000041360800100808109F
:1020D20008784641467820555345523A000020532D
:1020E200434F52453A2564002D2D2D2D2D2D2D2D9A
:1020F2002D2D0020205052455041524521200020D4
:1021020020494E434F4D494E472000202020202099
:102112004B424B20202020002020202020434359E6
:102122002020202000202047414D454F5645522077
:1021320000202053434F52453A256420200020209E
:1021420020202020202020202020200047616D65B3
:10215200204F76657200202020425249434B2020B6
:10216200002020425245414B455220002020554C30
:1021720054494D41544520000A0D3C3C53656C6561
:102182006374204C6576656C20312D323E3E0A0D1B
:0E219200000A0D557365726E616D653F200089
:00000001FF
