S01D000041546D6567615F474C43445F416E696D6174696F6E2E7372656360
S11300000C942A040C9434040C9434040C94340496
S11300100C9434040C9434040C9434040C9434047C
S11300200C9434040C9434040C9434040C9434046C
S11300300C9434040C9434040C9434040C9434045C
S11300400C9434040C9434040C9434040C9434044C
S11300500C943404000000000000000000000000C4
S11300600000000000000000000000000080C0E06C
S1130070F0F0F8FCFCFEFCC08080000000000000F2
S113008000000000000000000000E080000000000C
S11300900000000000000000000000000080E000FC
S11300A000000000000000000000000000000080CC
S11300B080C0FCFEFCFCF8F0F0E0C0800000000012
S11300C0000000000000000000000000000000002C
S11300D0000000000000000000000000000000001C
S11300E0000000000080C0E0F0F8FCFEFFFFFFFF0E
S11300F0FFFFFFFFFFFFFFFFFFFFFFFFFFFEFEFE0F
S1130100FCFCFCF8F8F8F8F8F8F8FFFFFFFEFEFE38
S1130110FEFEFEFEFEFEFEFEFEFEFEFEFFFFFFF8FE
S1130120F8F8F8F8F8F8FCFCFCFEFEFEFFFFFFFF11
S1130130FFFFFFFFFFFFFFFFFFFFFFFFFFFEFCF8D6
S1130140F0E0C0800000000000000000000000009B
S1130150000000000000000000000000000000009B
S113016080E0F0FCFEFFFFFFFFFFFFFFFFFFFFFF4C
S1130170FFFFFFFFFFFFFFFFFFFFFFFFFFFFFFFF8B
S1130180FFFFFFFFFFFFFFFFFFFFFFFFFFFFFFFF7B
S1130190FFFFFFFFFFFFFFFFFFFFFFFFFFFFFFFF6B
S11301A0FFFFFFFFFFFFFFFFFFFFFFFFFFFFFFFF5B
S11301B0FFFFFFFFFFFFFFFFFFFFFFFFFFFFFFFF4B
S11301C0FFFFFFFFFFFCF0E08000000000000000E4
S11301D0000000000000000000000000E0F8FCFF48
S11301E0FFFFFFFFFFFFFFFFFFFFFFFFFFFFFFFF1B
S11301F0FFFFFFFFFFFFFFFFFFFFFFFFFFFFFFFF0B
S1130200FFFFFFFFFFFFFFFFFFFFFFFFFFFFFFFFFA
S1130210FFFFFFFFFFFFFFFFFFFFFFFFFFFFFFFFEA
S1130220FFFFFFFFFFFFFFFFFFFFFFFFFFFFFFFFDA
S1130230FFFFFFFFFFFFFFFFFFFFFFFFFFFFFFFFCA
S1130240FFFFFFFFFFFFFFFFFFFFFCF8E0000000E0
S1130250000000000000000080F0FCFFFFFFFFFF33
S1130260FFFFFFFFFFFFFFFFFFFFFFFFFFFFFFFF9A
S1130270FFFFFFFFFFFFFFFFFFFFFFFFFFFFFFFF8A
S1130280FFFFFFFFFFFFFFFFFFFFFFFFFFFFFFFF7A
S1130290FFFFFFFFFFFFFFFFFFFFFFFFFFFFFFFF6A
S11302A0FFFFFFFFFFFFFFFFFFFFFFFFFFFFFFFF5A
S11302B0FFFFFFFFFFFFFFFFFFFFFFFFFFFFFFFF4A
S11302C0FFFFFFFFFFFFFFFFFFFFFFFFFFFFFCF04C
S11302D0800000000000E0FCFFFFFFFFFFFFFFFFC6
S11302E0FFFFFF7F7F7F7F3F3F7FFFFFFFFF3F1FBA
S11302F01F1F1F1F1F1F0F0F0F1F3F3F7FFFFFFFFA
S1130300FFFFFFFFFFFFFFFFFFFFFFFFFFFFFFFFF9
S1130310FFFFFFFFFFFFFFFFFFFFFFFFFFFFFFFFE9
S1130320FFFFFFFFFFFFFFFFFFFFFFFF7F3F3F1FB9
S11303300F0F0F1F1F1F1F1F1F1F3FFFFFFFFF7FF9
S11303403F3F7F7F7F7FFFFFFFFFFFFFFFFFFFFF39
S1130350FFFCE00000FC7F3F0F0F070301010101D8
S11303600000000000000000000000010100000087
S11303700000000000000000000000000000000178
S11303800303070F1F3F3F7FFFFFFFFFFFFFFFFF39
S1130390FFFFFFFFFFFFFFFFFFFFFFFFFFFFFFFF69
S11303A0FF7F3F3F1F0F0703030100000000000011
S11303B00000000000000000000000000101000037
S11303C00000000000000000000101010103070F0C
S11303D00F3F7FFC0001000000000000000000004F
S11303E00000000000000000000000000000000009
S11303F000000000000000000000000000000000F9
S113040000000000000000000000010303070F1FAC
S11304101F3F7FFFFFFF7F3F1F1F0F0703030100E5
S113042000000000000000000000000000000000C8
S113043000000000000000000000000000000000B8
S113044000000000000000000000000000000000A8
S11304500000000100000000000000000000000097
S11304600000000000000000000000000080C0E068
S1130470E0F0F8FCFCFEF8C0808000000000000002
S113048000000000000000000000008000000000E8
S113049000000000000000000000000000800000D8
S11304A000000000000000000000000000000080C8
S11304B080C0F8FEFCFCF8F0E0E0C0800000000022
S11304C00000000000000000000000000000000028
S11304D00000000000000000000000000000000018
S11304E0000000000080C0E0F0F8FCFEFFFFFFFF0A
S11304F0FFFFFFFFFFFFFFFFFFFFFF7F3F1E1E1EEB
S11305001C1C1C18181818180808080F0F0E0E0EBB
S11305100E0E0E0E0E0E0E0E1E1E1E1E1F1F181881
S11305201818989898989C9C9C1E1E1E3F7FFFFF4D
S1130530FFFFFFFFFFFFFFFFFFFFFFFFFFFEFCF8D2
S1130540F0E0C08000000000000000000000000097
S11305500000000000000000000000000000000097
S113056080E0F0FCFEFFFFFFFFFFFFFFFFFFFFFF48
S1130570FFFFFF7F3F1F0F87E3F1381C06030100D5
S11305800000000000003C7C7EFEFEFFFFFFFFFF3A
S1130590FFFFFFFFFFFFFFFFFFFFFFFFFFFFFFFF67
S11305A0FEFEFEFCFCFDF9FBF3E3E3C0C080083172
S11305B0E3870F1F3F7FFFFFFFFFFFFFFFFFFFFFEB
S11305C0FFFFFFFFFEFCF0E08000000000000000E1
S11305D0000000000000000000000000C0F0FCFE6D
S11305E0FFFFFFFFFFFFFFFFFFFFFFFFFFFFFFFF17
S11305F0CF030130FCFEFF3F0300000000000000B9
S113060000000000000000000000000000000000E6
S113061000000000000001010101010101010101CC
S113062001030303030707070F1F1F3F7FFFFFFE9D
S1130630FCF9E7CE18300183CFFFFFFFFFFFFFFF78
S1130640FFFFFFFFFFFFFFFFFFFEFCF0C000000005
S1130650000000000000000080F0FCFFFFFFFFFF2F
S1130660FFFFFFFFFFFFFFFFFFFFFFFFFFFFFFFF96
S1130670FFFFFEFCF8F1E3C00000000000000000F2
S11306800000000000000000000000000000000066
S11306900000000000000000000000000000000056
S11306A00000000000000000000000000000010342
S11306B00FC7E1F0F8FCFEFFFFFFFFFFFFFFFFFFA6
S11306C0FFFFFFFFFFFFFFFFFFFFFFFFFFFFFCF048
S11306D0800000000000C0FCFFFFFFFFFFFFFFFFE2
S11306E0FFFFFF7F7F7F7F3F3F7FFFFFFF7F3F1F36
S11306F01F1F1F1F1F0F0F0F0F1E1C387060C2C655
S11307008C1C3C7CF8F8F8F8F8F0F0F0F0F0F0F01D
S1130710F0F0F0F0F0F0F0F0F0F0F0F0E0E0C0C055
S1130720800000000000000080C0C06070381C1E03
S11307300F0F0F0F1F1F1F1F1F1F3F7FFFFFFF7F85
S11307403F3F7F7F7F7FFFFFFFFFFFFFFFFFFFFF35
S1130750FFFCC00000FC7F3F0F07070301010100FD
S11307600000000000000000000000010100000083
S11307700000000000000000000000000000000174
S11307800303060C18102143038307070F8F8F8F71
S11307908F9F9F9F9F9F8F8F8F8F8F0F070703833D
S11307A001402010180C06030301000000000000A3
S11307B00000000000000000000000000101000033
S11307C00000000000000000000001010103070711
S11307D00F3F7FFC0001000000000000000000004B
S11307E00000000000000000000000000000000005
S11307F000000000000000000000000000000000F5
S113080000000000000000000000010200000101DF
S113081003070F1F1F1F0F07030100000002010041
S113082000000000000000000000000000000000C4
S113083000000000000000000000000000000000B4
S113084000000000000000000000000000000000A4
S11308500000000111241FBECFE5D4E0DEBFCDBFF0
S11308600E94EC040C94F8050C9400008BBBA8982F
S1130870A998AA9A8DE08A95F1F70000AA988DE0CC
S11308808A95F1F7000008958BBBA89AA998AA9AB3
S11308908DE08A95F1F70000AA988DE08A95F1F72A
S11308A0000008958FEF8ABB84BB85B3886385BB42
S11308B08FE39CE90197F1F700C000008EE30E94EA
S11308C0360480E40E94360488EB0E94360480ECEF
S11308D00E9436048FE30E94360408951F93CF9339
S11308E0DF9385B3886185BB18EB812F0E943604A2
S11308F0C0E4D0E080E00E9444042197D9F71F5F50
S1130900103C99F780E40E94360488EB0E94360478
S1130910DF91CF911F9108958F929F92AF92BF92D2
S1130920CF92DF92EF92FF920F931F93CF93DF93B7
S1130930AB9AAC98EC017C012CEFF21A0F2E812CAF
S1130940912CA12CFFE3BF2EF02D6894CC24C3F886
S11309506894DD24D4F829C0FE0184910E944404E3
S11309602196C017D107C1F785B38C2585BB85B304
S11309708D2585BB20E030E048E353E4C501B40194
S11309800E940C050E947805862F0E94360420E000
S113099030E040E05FE3C501B4010E940C054B0167
S11309A05C01E8010E151F0521F08E01005C1F4F4C
S11309B0D3CF80E40E94360488EB0E943604DF9192
S11309C0CF911F910F91FF90EF90DF90CF90BF9048
S11309D0AF909F908F9008950E9452040E946E04DD
S11309E084E594E00E948C042FEF84E39CE0215082
S11309F080409040E1F700C0000084E590E00E9450
S1130A008C042FEF84E39CE0215080409040E1F778
S1130A1000C00000E5CF5058BB27AA270E94230539
S1130A200C94BE050E94B00538F00E94B70520F072
S1130A3039F49F3F19F426F40C94AD050EF4E095B7
S1130A40E7FB0C94A705E92F0E94CF0558F3BA17CA
S1130A50620773078407950720F079F4A6F50C94D0
S1130A60F1050EF4E0950B2EBA2FA02D0B01B90160
S1130A7090010C01CA01A0011124FF27591B99F010
S1130A80593F50F4503E68F11A16F040A22F232F1C
S1130A90342F4427585FF3CF469537952795A7956C
S1130AA0F0405395C9F77EF41F16BA0B620B730B13
S1130AB0840BBAF09150A1F0FF0FBB1F661F771F84
S1130AC0881FC2F70EC0BA0F621F731F841F48F439
S1130AD0879577956795B795F7959E3F08F0B0CFC2
S1130AE09395880F08F09927EE0F979587950895A9
S1130AF00E94D70588F09F5798F0B92F9927B751CE
S1130B00B0F0E1F0660F771F881F991F1AF0BA95AD
S1130B10C9F714C0B13091F00E94F105B1E0089515
S1130B200C94F105672F782F8827B85F39F0B93F07
S1130B30CCF3869577956795B395D9F73EF4909560
S1130B408095709561957F4F8F4F9F4F089597F9CA
S1130B509F6780E870E060E008959FEF80EC08955F
S1130B6000240A9416161706180609060895002488
S1130B700A9412161306140605060895092E039402
S1130B80000C11F4882352F0BB0F40F4BF2B11F476
S1130B9060FF04C06F5F7F4F8F4F9F4F089557FDD5
S1130BA09058440F551F59F05F3F71F04795880FD7
S1130BB097FB991F61F09F3F79F08795089512166E
S1130BC013061406551FF2CF4695F1DF08C016161A
S1130BD017061806991FF1CF8695710561050894CB
S1130BE00895E894BB2766277727CB0197F90895E2
S1070BF0F894FFCFA3
S9030000FC
